:100000000C945D000C9485000C9485000C94850084
:100010000C9485000C9485000C9485000C9485004C
:100020000C9485000C9485000C9485000C9485003C
:100030000C9485000C9485000C9485000C9485002C
:100040000C9405020C9485000C9484040C94B60462
:100050000C9485000C9485000C9485000C9485000C
:100060000C9485000C94850000000008000201003B
:100070000003040700000000000000000102040863
:100080001020408001020408102001020408102002
:10009000040404040404040402020202020203032E
:1000A0000303030300000000250028002B000000CC
:1000B0000000240027002A00E60411241FBECFEF11
:1000C000D8E0DEBFCDBF11E0A0E0B1E0EAEEFEE097
:1000D00002C005900D92A432B107D9F722E0A4E244
:1000E000B1E001C01D92A337B207E1F710E0CAEBFF
:1000F000D0E004C02297FE010E946F07C83BD107E1
:10010000C9F70E942A050C9473070C940000CF9243
:10011000DF92EF92FF928038910568F5BC0180E094
:1001200090E00E945A0620E030E04EEF52E40E9438
:10013000C6056B017C0120E030E04AE754E40E94F0
:10014000E8060E942E067093310160933001A701EA
:10015000960160E070E080E89FE30E94610520E086
:1001600030E04AE754E40E94E8060E942E067093AD
:100170002F0160932E01FF90EF90DF90CF900895B4
:10018000CF93DF9326E040E056E960E070E086ED33
:1001900091E00E942804C1E0D1E061E089910E94D1
:1001A000D60281E0C830D807C1F7C8E0D1E061E0ED
:1001B00089910E94D60281E0C331D807C1F780E05F
:1001C00090E021E0FC01ED5CFE4F208301968D3430
:1001D0009105C1F780E090E0FC01E058FE4F1082ED
:1001E00001968D349105C1F789E891E09093310132
:1001F000809330018EE592E090932F0180932E0141
:10020000DF91CF91089586ED91E00E945E03909377
:100210002701809326018F3F910561F480910001B1
:1002200090E00E9487009091320181E0891B8093C9
:1002300032010895803891054CF08138910569F5B7
:1002400081E08093250110922401089520912501D9
:10025000222319F1609124016D3429F48093000167
:100260001092250108954091320121E030E0241BD5
:100270003109462F50E071E0892B09F470E08DE4DC
:10028000829FF001839FF00D1124E40FF51FED5CB8
:10029000FE4F70836F5F609324010895CF92DF92C9
:1002A000EF92FF92CF9310922D01CDE4E0912D01BA
:1002B000E73008F0A4C0F0E0EF5FFE4F61E080811E
:1002C0000E940F0310922C0180912C018B3008F5B5
:1002D0002091320130912D0190E0FC014BE0349FE0
:1002E000E00DF11D1124C29FE00DF11D1124ED5C04
:1002F000FE4F2081222339F0FC01E85FFE4F61E0D0
:1003000080810E940F0380912C018F5F80932C01CC
:10031000DBCF0E944F0260932801709329018093E4
:100320002A0190932B010E944F02209130013091BD
:100330003101C0902801D0902901E0902A01F0906D
:100340002B01C20ED31EE11CF11C6C157D058E0520
:100350009F0548F486ED91E00E944503892B19F32F
:100360000E940301E0CF10922C01E0912C01EB30B0
:1003700068F4F0E0E85FFE4F60E080810E940F03C8
:1003800080912C018F5F80932C01EFCFE0912D01A4
:10039000F0E0EF5FFE4F60E080810E940F030E945B
:1003A0004F02609328017093290180932A01909352
:1003B0002B010E944F0220912E0130912F01C090FD
:1003C0002801D0902901E0902A01F0902B01C20E63
:1003D000D31EE11CF11C6C157D058E059F0548F4AC
:1003E00086ED91E00E944503892B19F30E940301D9
:1003F000E0CF80912D018F5F80932D0157CFCF915A
:10040000FF90EF90DF90CF9008951F920F920FB65C
:100410000F9211242F933F938F939F93AF93BF938A
:100420008091CE019091CF01A091D001B091D101E6
:100430003091CD0126E0230F2D3720F40296A11D27
:10044000B11D05C029E8230F0396A11DB11D2093FE
:10045000CD018093CE019093CF01A093D001B093B2
:10046000D1018091D2019091D301A091D401B0919A
:10047000D5010196A11DB11D8093D2019093D301A6
:10048000A093D401B093D501BF91AF919F918F916B
:100490003F912F910F900FBE0F901F9018953FB76F
:1004A000F8948091D2019091D301A091D401B091A0
:1004B000D50126B5A89B05C02F3F19F00196A11DB7
:1004C000B11D3FBF6627782F892F9A2F620F711DAC
:1004D000811D911D43E0660F771F881F991F4A9564
:1004E000D1F70895789484B5826084BD84B5816025
:1004F00084BD85B5826085BD85B5816085BDEEE62C
:10050000F0E0808181608083E1E8F0E0108280810A
:1005100082608083808181608083E0E8F0E0808178
:1005200081608083E1EBF0E0808184608083E0EB98
:10053000F0E0808181608083EAE7F0E08081846080
:10054000808380818260808380818E7F80838081B0
:10055000806880831092C1000895833081F028F470
:10056000813099F08230A1F008958730A9F0883069
:10057000B9F08430D1F4809180008F7D03C08091E8
:1005800080008F7780938000089584B58F7702C0B4
:1005900084B58F7D84BD08958091B0008F7703C0AE
:1005A0008091B0008F7D8093B0000895CF93DF934A
:1005B00090E0FC01E458FF4F2491FC01E057FF4F0D
:1005C0008491882349F190E0880F991FFC01E2553E
:1005D000FF4FA591B4918C559F4FFC01C591D491CB
:1005E0009FB7611108C0F8948C91209582238C9359
:1005F000888182230AC0623051F4F8948C91322FA2
:10060000309583238C938881822B888304C0F8944F
:100610008C91822B8C939FBFDF91CF9108950F9384
:100620001F93CF93DF931F92CDB7DEB7282F30E013
:10063000F901E859FF4F8491F901E458FF4F1491F3
:10064000F901E057FF4F04910023C9F0882321F0FE
:1006500069830E94AD026981E02FF0E0EE0FFF1F79
:10066000EC55FF4FA591B4919FB7F8948C9161110F
:1006700003C01095812301C0812B8C939FBF0F90E5
:10068000DF91CF911F910F910895FC01818D228DF3
:1006900090E0805C9F4F821B91098F73992708958A
:1006A000FC01918D828D981731F0828DE80FF11D3C
:1006B000858D90E008958FEF9FEF0895FC01918D57
:1006C000828D981761F0828DDF01A80FB11D5D96B4
:1006D0008C91928D9F5F9F73928F90E008958FEF22
:1006E0009FEF08958CED94E0892B49F083E091E031
:1006F000892B29F00E94DC0481110C9403010895D8
:10070000FC01848DDF01A80FB11DA35ABF4F2C91AE
:10071000848D90E001968F739927848FA689B7897D
:100720002C93A089B1898C9180648C93938D848D56
:10073000981306C00288F389E02D80818F7D808325
:100740000895CF93DF93EC01888D8823C9F0EA895F
:10075000FB89808185FD05C0A889B9898C9186FDBA
:100760000FC00FB607FCF5CF808185FFF2CFA889B7
:10077000B9898C9185FFEDCFCE010E948003E7CF30
:10078000DF91CF910895CF92DF92FF920F931F9345
:10079000CF93DF931F92CDB7DEB76C0181E0D60116
:1007A00058968C9358975B969C915B975C968C912E
:1007B0005C97981307C05096ED91FC9151978081FA
:1007C00085FD2EC0F601038D10E00F5F1F4F0F73E4
:1007D0001127F02EF601848DF81211C00FB607FC18
:1007E000F9CFD6015096ED91FC915197808185FF0C
:1007F000F1CFC60169830E9480036981EBCF838DAD
:10080000E80FF11DE35AFF4F6083D6015B960C930E
:100810005B975296ED91FC915397808180620CC05A
:10082000D6015696ED91FC91579760835096ED91C5
:10083000FC91519780818064808381E090E00F90EB
:10084000DF91CF911F910F91FF90DF90CF9008958E
:10085000BF92CF92DF92EF92FF92CF93DF93EC01A2
:100860006A017B01B22E60E874E88EE190E0A70196
:1008700096010E944B0721503109410951095695B3
:10088000479537952795E889F98982E08083211576
:1008900080E1380798F0E889F989108260E472E411
:1008A0008FE090E0A70196010E944B07215031098B
:1008B000410951095695479537952795EC85FD8552
:1008C0003083EE85FF852083188EEC89FD89B08208
:1008D000EA89FB89808180618083EA89FB89808144
:1008E00088608083EA89FB89808180688083EA89C7
:1008F000FB8980818F7D8083DF91CF91FF90EF9086
:10090000DF90CF90BF9008951F920F920FB60F9275
:1009100011242F938F939F93EF93FF93E091E60120
:10092000F091E7018081E091EC01F091ED0182FD11
:1009300012C090818091EF018F5F8F732091F00141
:10094000821751F0E091EF01F0E0EA52FE4F958FEF
:100950008093EF0101C08081FF91EF919F918F9172
:100960002F910F900FBE0F901F9018951F920F920E
:100970000FB60F9211242F933F934F935F936F9372
:100980007F938F939F93AF93BF93EF93FF9386EDE6
:1009900091E00E948003FF91EF91BF91AF919F91F1
:1009A0008F917F916F915F914F913F912F910F9018
:1009B0000FBE0F901F90189586ED91E00E944503A1
:1009C00021E0892B09F420E0822F08951092D901AB
:1009D0001092D80188EE93E0A0E0B0E08093DA01B5
:1009E0009093DB01A093DC01B093DD0187E191E0FE
:1009F0009093D7018093D60185EC90E09093E3012A
:100A00008093E20184EC90E09093E5018093E4010F
:100A100080EC90E09093E7018093E60181EC90E018
:100A20009093E9018093E80182EC90E09093EB01D0
:100A30008093EA0186EC90E09093ED018093EC01C5
:100A40001092EF011092F0011092F1011092F20158
:100A5000089508950E9472020E9429050E94C00014
:100A6000C2E7D3E00E944E012097E1F30E94720397
:100A7000F9CFCF92DF92EF92FF920F931F93CF9314
:100A8000DF937C016A01EB0100E010E00C151D050D
:100A900071F06991D701ED91FC910190F081E02D09
:100AA000C7010995892B19F00F5F1F4FEFCFC801C0
:100AB000DF91CF911F910F91FF90EF90DF90CF903A
:100AC00008955058BB27AA270ED048C139D130F01D
:100AD0003ED120F031F49F3F11F41EF42EC10EF4EC
:100AE000E095E7FB24C1E92F4AD180F3BA176207EA
:100AF00073078407950718F071F49EF562C10EF430
:100B0000E0950B2EBA2FA02D0B01B90190010C011D
:100B1000CA01A0011124FF27591B99F0593F50F435
:100B2000503E68F11A16F040A22F232F342F44278D
:100B3000585FF3CF469537952795A795F040539585
:100B4000C9F77EF41F16BA0B620B730B840BBAF055
:100B50009150A1F0FF0FBB1F661F771F881FC2F7C0
:100B60000EC0BA0F621F731F841F48F487957795D4
:100B70006795B795F7959E3F08F0B3CF9395880F8B
:100B800008F09927EE0F9795879508950CD0E6C049
:100B9000DED040F0D5D030F021F45F3F19F0C7C06F
:100BA000511110C1CAC0EBD098F39923C9F3552352
:100BB000B1F3951B550BBB27AA2762177307840750
:100BC00038F09F5F5F4F220F331F441FAA1FA9F306
:100BD00033D00E2E3AF0E0E830D091505040E695F8
:100BE000001CCAF729D0FE2F27D0660F771F881F59
:100BF000BB1F261737074807AB07B0E809F0BB0B48
:100C0000802DBF01FF2793585F4F2AF09E3F51056B
:100C100068F08DC0D7C05F3FECF3983EDCF386955B
:100C200077956795B795F7959F5FC9F7880F911DE1
:100C30009695879597F90895E1E0660F771F881FCD
:100C4000BB1F621773078407BA0720F0621B730B80
:100C5000840BBA0BEE1F88F7E095089598D088F0C2
:100C60009F5790F0B92F9927B751A0F0D1F0660F98
:100C7000771F881F991F1AF0BA95C9F712C0B130B3
:100C800081F09FD0B1E008959CC0672F782F88270E
:100C9000B85F39F0B93FCCF3869577956795B395F2
:100CA000D9F73EF490958095709561957F4F8F4F61
:100CB0009F4F0895E89409C097FB3EF49095809566
:100CC000709561957F4F8F4F9F4F9923A9F0F92F12
:100CD00096E9BB279395F695879577956795B79590
:100CE000F111F8CFFAF4BB0F11F460FF1BC06F5F76
:100CF0007F4F8F4F9F4F16C0882311F096E911C088
:100D0000772321F09EE8872F762F05C0662371F0A8
:100D100096E8862F70E060E02AF09A95660F771FBC
:100D2000881FDAF7880F9695879597F9089597F9B0
:100D30009F6780E870E060E008959FEF80EC089581
:100D400000240A94161617061806090608950024AA
:100D50000A9412161306140605060895092E039424
:100D6000000C11F4882352F0BB0F40F4BF2B11F498
:100D700060FF04C06F5F7F4F8F4F9F4F089557FDF7
:100D80009058440F551F59F05F3F71F04795880FF9
:100D900097FB991F61F09F3F79F087950895121690
:100DA00013061406551FF2CF4695F1DF08C016163C
:100DB00017061806991FF1CF8695710561050894ED
:100DC0000895E894BB2766277727CB0197F9089504
:100DD0000BD0C4CFB5DF28F0BADF18F0952309F0A7
:100DE000A6CFABCF1124EECFCADFA0F3959FD1F3EE
:100DF000950F50E0551F629FF001729FBB27F00DC9
:100E0000B11D639FAA27F00DB11DAA1F649F66271D
:100E1000B00DA11D661F829F2227B00DA11D621F6C
:100E2000739FB00DA11D621F839FA00D611D221F26
:100E3000749F3327A00D611D231F849F600D211D0A
:100E4000822F762F6A2F11249F5750408AF0E1F0AD
:100E500088234AF0EE0FFF1FBB1F661F771F881FF6
:100E600091505040A9F79E3F510570F060CFAACF36
:100E70005F3FECF3983EDCF3869577956795B795E1
:100E8000F795E7959F5FC1F7FE2B880F911D96950B
:100E9000879597F90895A1E21A2EAA1BBB1BFD01A5
:100EA0000DC0AA1FBB1FEE1FFF1FA217B307E40749
:100EB000F50720F0A21BB30BE40BF50B661F771FA1
:100EC000881F991F1A9469F7609570958095909581
:100ED0009B01AC01BD01CF010895EE0FFF1F0590EE
:0A0EE000F491E02D0994F894FFCF7F
:100EEA001908070605040302090A0C0B0D0E0F1058
:100EFA0011131200000000C303390545035E0350B5
:040F0A0003A103003C
:00000001FF
